:100000000C9435000C9452000C9452000C94520045
:100010000C9452000C9452000C9452000C94180151
:100020000C9452000C9452000C9452000C94520008
:100030000C9452000C9452000C9452000C945200F8
:100040000C9452000C9452000C9452000C945200E8
:100050000C9452000C9452000C9452000C945200D8
:100060000C9452000C945200680211241FBECFEF72
:10007000D8E0DEBFCDBF24E0A0E0B1E001C01D921A
:10008000A434B207E1F710E0C5E3D0E004C0219743
:10009000FE010E94A608C433D107C9F70E94A2023C
:1000A0000C94E30A0C940000CF92DF92EF92FF923F
:1000B000CF93DF93CCE1D4E01D8E1E8E198E1A8E65
:1000C0001B8E1C8E8FB78F778FBFCD88DE88EF8811
:1000D000F88C29893A894B895C89C701B6010E944D
:1000E000AD089B01AC01C701B6010E941E09288121
:1000F00039814A815B810E94760A2DEC3CEC4CE40C
:1001000053E40E94760A6CA37DA38EA39FA382E092
:100110008093B00097E09093B1001092B20096E205
:100120009093B300809370002A98229A82E2809381
:10013000800089E1809381008FE790E090938700B1
:100140008093860085E090E090938B0080938A00F6
:100150009C81892F806480937C00EAE7F0E08081B5
:1001600087688083EEE7F0E0808121E030E001C025
:10017000220F9A95EAF7822B80838FB780688FBF12
:10018000DF91CF91FF90EF90DF90CF900895909105
:10019000C00095FFFCCF8093C6000895559A30E0CB
:1001A00020E055E02617370781F080FF0CC05D9AEC
:1001B000452F4A95F1F75E9A969587955E985D98DA
:1001C0002F5F3F4FEFCF5D98F3CF85E08A95F1F732
:1001D0000895559898E080E045E05E9A242F2A958E
:1001E000F1F75E98242F2A95F1F7282F30E0359506
:1001F0002795822F4D998068915079F708955598E9
:1002000040E090E055E0481789F05E9A252F2A9546
:10021000F1F75E98252F2A95F1F7292F30E03595D3
:100220002795922F4D9990684F5FEDCF892F0895B4
:100230001F920F920FB60F9211244F925F926F92FE
:100240007F928F929F92AF92BF92CF92DF92EF9266
:10025000FF922F933F934F935F936F937F938F936F
:100260009F93AF93BF93EF93FF93CF93DF9300D010
:1002700000D0CDB7DEB780912004806480937C00ED
:1002800080917A00806480937A0080917A0086FD64
:10029000FCCF609178007091790090E080E00E943E
:1002A000BF0969837A838B839C839B01AC01609136
:1002B00040047091410480914204909143040E9453
:1002C000AC084B015C018092350490923604A092F8
:1002D0003704B092380420911804309119044091E9
:1002E0001A0450911B040E94AD086B017C0120E0B0
:1002F00030E04AE754E40E94710A18160CF4C9C0B1
:1003000020E030E04AE754ECC701B6010E94190929
:1003100087FDC6C0C0921804D0921904E0921A0456
:10032000F0921B0420912104309122044091230477
:1003300050912404C501B4010E94760A2B013C01AE
:1003400020913C0430913D0440913E0450913F0483
:1003500069817A818B819C810E94AC08209129045B
:1003600030912A0440912B0450912C040E94760A6B
:100370009B01AC01C301B2010E94AC082B013C01FE
:10038000209125043091260440912704509128049F
:10039000C701B6010E94760A9B01AC01C301B201FC
:1003A0000E94AD086B017C0120E030E040EB52E49C
:1003B0000E94710A18160CF47AC020E030E040EA7E
:1003C00050E4C701B6010E94190987FD77C0C70133
:1003D000B6010E94900970938B0060938A00898116
:1003E0009A81AB81BC8180933C0490933D04A0939F
:1003F0003E04B0933F0480913B04882339F18091FF
:100400003904811123C020E030E044EA52ECC501F8
:10041000B4010E94710A18160CF057C020E030E0B9
:1004200044EA52E4C501B4010E94190987FF4DC096
:1004300080913A048F5F80933A0480913A04853129
:1004400028F081E08093390410923A040F900F90C5
:100450000F900F90DF91CF91FF91EF91BF91AF91EE
:100460009F918F917F916F915F914F913F912F91CC
:10047000FF90EF90DF90CF90BF90AF909F908F90C4
:100480007F906F905F904F900F900FBE0F901F90D6
:100490001895C12CD12C3AE7E32E34E4F32E3ACF51
:1004A000C12CD12C2AE7E22E24ECF22E33CFC12C22
:1004B000D12C90EBE92E92E4F92E89CFC12CD12CCE
:1004C00080EAE82E80E4F82E82CF10923A04B5CF6D
:1004D000ECE1F4E080E090E0A0E0B0E48583968376
:1004E000A783B0878CEC9CECACECBDE38187928752
:1004F000A387B4878EEC9CECACE4BEE3858796873B
:10050000A787B08B80E098E0A3E9B5E4818B928B5C
:10051000A38BB48B80E090E3A7E2B5E4858B968B48
:10052000A78BB08F118E128E138E148E158E168E91
:10053000178E10A211A212A213A214A215A216A223
:1005400017A20895CF93DF9300D000D0CDB7DEB7C8
:1005500084B1836084B98AB18C618AB9289A299858
:100560008BB18C618BB983E390E09093C50080934D
:10057000C40088E18093C10086E08093C20080912E
:10058000C0008D7F8093C0008AB1806E8AB98BB124
:100590008F718BB938984098259A2D98109217042E
:1005A0001092160486E194E0A6E1B2E0E6E1F3E001
:1005B00011921D928E179F07D9F710921502109273
:1005C0001402109213021092120211E060E9262E1A
:1005D0003324339422E033E08091C00087FFFCCFC6
:1005E0008091C6008093110290911704911108C068
:1005F00091E09093160480930C0190931704ECCF34
:100600009130A9F580930001E09116049E0F90931C
:100610001604F0E0E45FFE4F8083811125C0309323
:10062000170480910C01803A09F41DC108F0C9C07B
:10063000833309F4D3C108F051C0813109F4A9C151
:1006400060F5803149F680910D0190E0AEE0B1E0B7
:10065000E6E1F2E09F01265132402817390708F001
:1006600094C12D912193F6CF20931704B5CF9230EA
:1006700081F4E091160491E09E0F90931604F0E04F
:10068000E45FFE4F808380910001815080930001E0
:10069000C4CF933009F0A0CFC4CF823109F47EC11A
:1006A000823309F099CF80E091E0E6E1F3E0DF01E9
:1006B0009C011D9221503040E1F7E6E1F2E0DF01BC
:1006C0009C011D9221503040E1F7109213021092CC
:1006D000120210921502109214028EC1843409F491
:1006E00074C1E8F4843309F48BC1833409F074CF06
:1006F00026E133E03C832B8320910E018B819C818A
:10070000865193402817190609F008F4A1C0AB815F
:10071000BC818D91BC83AB830E94C700EDCF853433
:1007200009F40CC5863409F057CF30910E013A8395
:1007300019828A819981891709F400C580910D0178
:100740008E5F80930B01A3E0A0930A011092090130
:1007500010920501109206011092070110920801F3
:1007600010930401109203011092020190900A016B
:1007700080910B01981608F0DDC4E92DF0E0E45FEC
:10078000FE4FFC83EB838081883E09F4F8C208F0B9
:10079000EEC1883D09F480C208F04EC1833D09F4E2
:1007A000BDC308F038C18F3C09F4D2C2823D09F4C0
:1007B0009FC3843409F03AC185B1B0E28B2785B973
:1007C00035C1853A09F4A5C0C0F4823A09F44EC097
:1007D00078F1833A09F489C0843A09F0FDCE80911A
:1007E0003B0410922004811182C00E945400109298
:1007F00017048CE40E94C700EDCE823B81F178F4AF
:10080000863A09F497C0813B09F0E6CE10923B048A
:1008100080910E018232E1F410933B0419C0833BB6
:10082000D1F0853B09F0D8CE5B9A5C9A5A9810C0FB
:1008300080910E0190910F01A0911001B0911101D2
:1008400080931C0490931D04A0931E04B0931F0476
:1008500010921704BFCE5A9A5C9A5B98F9CF5B9AB4
:100860005C9A5C98F5CF2898299AF2CF2998289A13
:100870008BB18F718BB980910E01813049F7109245
:10088000200480E090E0A0E8BFE380931C049093F4
:100890001D04A0931E04B0931F04109239041092FB
:1008A0003A048FB78F778FBF1092B00010928000FC
:1008B00080917A008F7780937A001092B100109225
:1008C00081002A9885E090E090938B0080938A00C5
:1008D0008FE790E090938700809386008FB78068C1
:1008E0008FBF8BB18C618BB9B3CF289AB1CF0E94E7
:1008F00054002BEF80913904811124C4215009F454
:1009000023C400000000000080E49CE90197F1F797
:10091000F1CF1092200483E393E3A3EAB0E4809341
:100920001C0490931D04A0931E04B0931F040E9406
:1009300054008ECF60910F0170E0762F6627809172
:100940000E01680F711D90E080E00E94BF09609366
:100950002D0470932E0480932F04909330046091A3
:10096000110170E0762F662780911001680F711DCC
:1009700090E080E00E94BF096093310470933204DC
:10098000809333049093340463CF109217048AE465
:1009900031CF10921704809112022CCFA6E1B2E061
:1009A000BC83AB8320910E018B819C818651924048
:1009B0002817190609F008F44BCFEB81FC818191CF
:1009C000FC83EB830E94C700EDCFE0910E01F0E0C5
:1009D000EA5EFC4F80810E94C7003ACFE6E1F3E077
:1009E00080E091E0DF019C011D9221503040E1F751
:1009F0001092130210921202109217048BE4FACE96
:100A0000E6E1F2E080E091E0DF019C011D922150DF
:100A10003040E1F75ECE853D09F4A2C208F432C24F
:100A2000863D09F4D2C2873D09F43DC180910A0197
:100A30008F5F80930A019ACE8D3D09F418C388F424
:100A40008A3D09F4F1C008F40BC18B3D79F7809120
:100A5000140290911502019690931502809314024E
:100A6000E5CF853E09F4F1C250F4843EF9F6EB81FE
:100A7000FC818181809301019A94980EEEC0863E9C
:100A800009F4D0C2873E91F6939490920A01E92D21
:100A9000F0E0E45FFE4F60816093010170E090E060
:100AA00080E00E94C10926E636E64AEA51E40E9447
:100AB000760A2B013C012BEA3AEA4AEA50E40E940A
:100AC000760A4B015C0120E030E040E85FE30E94E1
:100AD000190987FDC4C120E030E040E850E4C301BB
:100AE000B2010E94760A6B017C0120E03FEF4FE7E4
:100AF00057E40E94710A18160CF09EC120E030E005
:100B00004AE754E4C301B2010E941E092B013C01D3
:100B100020E030E04AE755E40E94760A4B015C0190
:100B200020E030E040E85FE30E94190987FD81C1C1
:100B300020E03FEF4FE757E4C501B4010E94710A7E
:100B400018160CF06CC120E030E040E251E4C30123
:100B5000B2010E94760A0E9490096115710509F49C
:100B600065C1C1010197F1F761507109F6CF833F6B
:100B700009F4C9C008F042C08E3E09F472C140F5C4
:100B80008B3E09F474C18C3E09F4EAC1893E09F038
:100B90004DCF80910401882309F437C2AB81BC8119
:100BA00011968C91119790E090930301809302012C
:100BB00012968C9180930901109204018091090191
:100BC000882309F428C29A9480910201981A45C09A
:100BD000803F09F4E5C108F4E0C1813F09F4FEC19A
:100BE000823F09F023CF939490920A01E92DF0E01F
:100BF000E45FFE4F808168E070E078C18B3F09F4CC
:100C00007AC050F4853F09F47CC008F478C08A3F6C
:100C100009F00CCF29980ACF8F3F08F06EC08D3FA6
:100C200008F46BC0289A02CF64E070E090E080E0A6
:100C30000E94CE00AB81BC8111968C9168E070E07F
:100C400090E00E94CE00EB81FC81828168E070E040
:100C500090E00E94CE009394939490920A01E6CE85
:100C600064E070E090E080E00E94CE00AB81BC8147
:100C700011968C9168E070E090E00E94CE00EB81CC
:100C8000FC81828168E070E090E00E94CE00AB8140
:100C9000BC8113968C91DACF66E170E090E080E041
:100CA0000E94CE00C3CE64E070E081E090E00E943C
:100CB000CE0068E070E090E080E00E94CE00E0911D
:100CC0001202F0911302FC83EB830E94E9002B8156
:100CD0003C812A5E3C4F5901D9018C93EB81FC8108
:100CE0003296F0931302E09312020E94E900D501BC
:100CF00011968C939BCE299A99CE289897CE2D98B1
:100D000095CE2D9A93CE939490920A01E92DF0E01E
:100D1000E45FFE4F80818093010183FD11C05D98E7
:100D20008091010182FD0EC05E988091010181FDDC
:100D30000BC0559A8091010180FD08C0569A76CE6D
:100D40005D9AEECF5E9AF1CF5598F4CF56986ECE5D
:100D5000939490920A01E92DF0E0E45FFE4F8081C8
:100D60008093010181FD07C05F988091010180FDA2
:100D700004C0579A5BCE5F9AF8CF579857CE93949A
:100D800090920A01E92DF0E0E45FFE4F60816093EC
:100D9000010170E090E080E00E94C10922E538EB9B
:100DA0004EEA50E40E94760A2B013C0120E030E03C
:100DB0004AE755E40E94760A4B015C0120E030E0EE
:100DC00040E85FE30E94190987FD23C020E03FEF60
:100DD0004FE757E4C501B4010E94710A1816A4F444
:100DE00020E030E040E251E4C301B2010E94760A03
:100DF0000E9490096115710509F418CEC10101978F
:100E0000F1F761507109F6CFC501B4010E94900954
:100E100002C061E070E0CB010197F1F707CEC50198
:100E2000B4010E949009CB010197F1F70A95F1F7FF
:100E3000FDCD61E070E0F7CF20E030E04FE753E414
:100E4000C501B4010E94710A18161CF4C701B6014D
:100E5000DDCFC501B4010E949009062FE7CF01E064
:100E6000E5CFEB81FC81618170E08281F1CE9394CA
:100E700090920A01E92DF0E0E45FFE4F80810E942C
:100E8000FF00D4CD64E070E090E080E00E94CE00EE
:100E900062E070E082E090E00E94CE00A091140237
:100EA000B0911502BC83AB83AA5EBD4F5D018C91EE
:100EB00068E070E090E00E94CE00EB81FC81329609
:100EC000F0931502E0931402D50111968C9168E01D
:100ED00070E090E00E94CE00939490920A01E92D78
:100EE000F0E0E45FFE4F808164E070E090E0D8CEF7
:100EF000939490920A01A0911402B0911502CD0131
:100F000001969093150280931402AA5EBD4FE92DBD
:100F1000F0E0E45FFE4F80818C9388CD64E070E068
:100F200090E080E00E94CE0062E070E082E090E01D
:100F30000E94CE0068E070E090E080E00E94CE0069
:100F400080911402909115029C012F5F3F4F3093C6
:100F50001502209314028A5E9D4FFC018081B7CF59
:100F6000939490920A0120911202309113023C83D3
:100F70002B83E92DF0E0E45FFE4F80810E94FF00AB
:100F8000EB81FC81EA5EFC4F80838B819C81019622
:100F9000909313028093120249CD0E94E90046CD3E
:100FA000A0911202B0911302BC83AB830E94E900AE
:100FB000EB81FC81EA5EFC4F8083EB81FC81319602
:100FC000F0931302E093120231CD2091120230917E
:100FD00013023C832B830E94E900D2CFA09114021C
:100FE000B0911502BC83AB83FD01EA5EFD4F8081A9
:100FF00068E070E090E00E94CE00EB81FC813196C9
:10100000F0931502E093140211CD809109018150F3
:1010100080930901D3CD1093040110920301109223
:10102000020119CEAB81BC8111968C9111978093EE
:101030000101E0911202F0911302EA5EFC4F9081EF
:101040008913F4CC12968C9115CDEB81FC818181B2
:1010500080930101E0911202F0911302EA5EFC4FCD
:101060009081891708F0E2CCAB81BC81EBCF409135
:10107000050150910601609107017091080180916E
:101080000401882309F449C0EB81FC81818190E04F
:101090009093030180930201E0911402F0911502F4
:1010A000EA5EFD4F818190E0B0E0A0E0BA2FA92F69
:1010B000982F88272081820F911DA11DB11D480FF7
:1010C000591F6A1F7B1F828190E0B0E0A0E0DC0125
:1010D00099278827840F951FA61FB71F80930501A6
:1010E00090930601A0930701B093080110920401A8
:1010F0008091050190910601A0910701B09108012E
:10110000892B8A2B8B2B09F05ECD10930401109252
:101110000301109202019394A0CD4150510961093D
:101120007109409305015093060160930701709384
:101130000801DECFF981FF5FF983FBCA1092170423
:101140008EE458CB8CE447CC89E645CCEE0FFF1FEC
:101150000590F491E02D09945058BB27AA270E94CE
:10116000C4080C94370A0E94290A38F00E94300AF9
:1011700020F039F49F3F19F426F40C94260A0EF45B
:10118000E095E7FB0C94200AE92F0E94480A58F3E7
:10119000BA17620773078407950720F079F4A6F55C
:1011A0000C946A0A0EF4E0950B2EBA2FA02D0B01B9
:1011B000B90190010C01CA01A0011124FF27591B9C
:1011C00099F0593F50F4503E68F11A16F040A22FA2
:1011D000232F342F4427585FF3CF46953795279513
:1011E000A795F0405395C9F77EF41F16BA0B620B12
:1011F000730B840BBAF09150A1F0FF0FBB1F661F59
:10120000771F881FC2F70EC0BA0F621F731F841F9B
:1012100048F4879577956795B795F7959E3F08F0C1
:10122000B0CF9395880F08F09927EE0F9795879583
:1012300008950E94FC0908F481E008950E94320993
:101240000C94370A0E94300A58F00E94290A40F094
:1012500029F45F3F29F00C94200A51110C946B0A79
:101260000C94260A0E94480A68F39923B1F3552387
:1012700091F3951B550BBB27AA27621773078407A9
:1012800038F09F5F5F4F220F331F441FAA1FA9F33F
:1012900035D00E2E3AF0E0E832D091505040E6952D
:1012A000001CCAF72BD0FE2F29D0660F771F881F8E
:1012B000BB1F261737074807AB07B0E809F0BB0B81
:1012C000802DBF01FF2793585F4F3AF09E3F510595
:1012D00078F00C94200A0C946B0A5F3FE4F3983E7C
:1012E000D4F3869577956795B795F7959F5FC9F77E
:1012F000880F911D9695879597F90895E1E0660FFF
:10130000771F881FBB1F621773078407BA0720F077
:10131000621B730B840BBA0BEE1F88F7E0950895E0
:101320000E94500A88F09F5798F0B92F9927B7511B
:10133000B0F0E1F0660F771F881F991F1AF0BA9579
:10134000C9F714C0B13091F00E946A0AB1E0089563
:101350000C946A0A672F782F8827B85F39F0B93F55
:10136000CCF3869577956795B395D9F73EF490952C
:101370008095709561957F4F8F4F9F4F0895E894AA
:1013800009C097FB3EF490958095709561957F4FCD
:101390008F4F9F4F9923A9F0F92F96E9BB2793957B
:1013A000F695879577956795B795F111F8CFFAF48B
:1013B000BB0F11F460FF1BC06F5F7F4F8F4F9F4FBC
:1013C00016C0882311F096E911C0772321F09EE81A
:1013D000872F762F05C0662371F096E8862F70E080
:1013E00060E02AF09A95660F771F881FDAF7880F5A
:1013F0009695879597F90895990F0008550FAA0BB0
:10140000E0E8FEEF16161706E807F907C0F0121617
:101410001306E407F50798F0621B730B840B950B1A
:1014200039F40A2661F0232B242B252B21F408956F
:101430000A2609F4A140A6958FEF811D811D08950C
:1014400097F99F6780E870E060E008959FEF80EC77
:10145000089500240A94161617061806090608951A
:1014600000240A9412161306140605060895092E80
:101470000394000C11F4882352F0BB0F40F4BF2BEF
:1014800011F460FF04C06F5F7F4F8F4F9F4F08952F
:1014900057FD9058440F551F59F05F3F71F0479525
:1014A000880F97FB991F61F09F3F79F0879508950A
:1014B000121613061406551FF2CF4695F1DF08C029
:1014C000161617061806991FF1CF86957105610546
:1014D00008940895E894BB2766277727CB0197F9EE
:1014E00008950E94FC0908F48FEF08950E94890A6C
:1014F0000C94370A0E94290A38F00E94300A20F022
:10150000952311F00C94200A0C94260A11240C94B3
:101510006B0A0E94480A70F3959FC1F3950F50E043
:10152000551F629FF001729FBB27F00DB11D639F95
:10153000AA27F00DB11DAA1F649F6627B00DA11D3B
:10154000661F829F2227B00DA11D621F739FB00DE1
:10155000A11D621F839FA00D611D221F749F332751
:10156000A00D611D231F849F600D211D822F762FEA
:101570006A2F11249F5750409AF0F1F088234AF0C7
:10158000EE0FFF1FBB1F661F771F881F9150504033
:10159000A9F79E3F510580F00C94200A0C946B0A29
:1015A0005F3FE4F3983ED4F3869577956795B795BA
:1015B000F795E7959F5FC1F7FE2B880F911D9695D4
:0A15C000879597F90895F894FFCF7E
:00000001FF
