:100000000C9435000C9452000C9452000C94520045
:100010000C9452000C9452000C9452000C94180151
:100020000C9452000C9452000C9452000C94520008
:100030000C9452000C9452000C9452000C945200F8
:100040000C9452000C9452000C9452000C945200E8
:100050000C9452000C9452000C9452000C945200D8
:100060000C9452000C945200620211241FBECFEF78
:10007000D8E0DEBFCDBF23E0A0E0B1E001C01D921B
:10008000A23AB207E1F710E0C5E3D0E004C021973F
:10009000FE010E942308C433D107C9F70E949B02C6
:1000A0000C94600A0C940000CF92DF92EF92FF92C2
:1000B000CF93DF93CBE7D3E01D8E1E8E198E1A8E61
:1000C0001B8E1C8E8FB78F778FBFCD88DE88EF8811
:1000D000F88C29893A894B895C89C701B6010E944D
:1000E0002A089B01AC01C701B6010E949B08288128
:1000F00039814A815B810E94F3092DEC3CEC4CE490
:1001000053E40E94F3096BA37CA38DA39EA382E01A
:100110008093B00097E09093B1001092B20096E205
:100120009093B300809370002A98229A82E2809381
:10013000800089E1809381008FE790E090938700B1
:100140008093860085E090E090938B0080938A00F6
:100150009C81892F806480937C00EAE7F0E08081B5
:1001600087688083EEE7F0E0808121E030E001C025
:10017000220F9A95EAF7822B80838FB780688FBF12
:10018000DF91CF91FF90EF90DF90CF900895909105
:10019000C00095FFFCCF8093C6000895559A30E0CB
:1001A00020E055E02617370781F080FF0CC05D9AEC
:1001B000452F4A95F1F75E9A969587955E985D98DA
:1001C0002F5F3F4FEFCF5D98F3CF85E08A95F1F732
:1001D0000895559898E080E045E05E9A242F2A958E
:1001E000F1F75E98242F2A95F1F7282F30E0359506
:1001F0002795822F4D998068915079F708955598E9
:1002000040E090E055E0481789F05E9A252F2A9546
:10021000F1F75E98252F2A95F1F7292F30E03595D3
:100220002795922F4D9990684F5FEDCF892F0895B4
:100230001F920F920FB60F9211244F925F926F92FE
:100240007F928F929F92AF92BF92CF92DF92EF9266
:10025000FF922F933F934F935F936F937F938F936F
:100260009F93AF93BF93EF93FF93CF93DF9300D010
:1002700000D0CDB7DEB780917F03806480937C008F
:1002800080917A00806480937A0080917A0086FD64
:10029000FCCF609178007091790090E080E00E943E
:1002A0003C0969837A838B839C839B01AC016091B9
:1002B0009E0370919F038091A0039091A1030E94DF
:1002C00029084B015C018092940390929503A092BF
:1002D0009603B09297032091770330917803409171
:1002E000790350917A030E942A086B017C0120E077
:1002F00030E04AE754E40E94EE0918160CF4C3C03B
:1003000020E030E04AE754ECC701B6010E949608AD
:1003100087FDC0C0C0927703D0927803E092790342
:10032000F0927A03209180033091810340918203FF
:1003300050918303C501B4010E94F3092B013C01D4
:1003400020919A0330919B0340919C0350919D030F
:1003500069817A818B819C810E9429082091880380
:100360003091890340918A0350918B030E94F309D5
:100370009B01AC01C301B2010E9429082B013C0181
:100380002091840330918503409186035091870327
:10039000C701B6010E94F3099B01AC01C301B20180
:1003A0000E942A086B017C0120E030E040EB52E41F
:1003B0000E94EE0918160CF474C020E030E040EA08
:1003C00050E4C701B6010E94960887FD71C0C701BD
:1003D000B6010E940D0970938B0060938A00898199
:1003E0009A81AB81BC8180939A0390939B03A093E5
:1003F0009C03B0939D0380919803811121C020E05C
:1004000030E044E252ECC501B4010E94EE09181636
:100410000CF055C020E030E044E252E4C501B401E4
:100420000E94960887FF4BC0809199038F5F80934D
:10043000990380919903853618F081E080939803A1
:100440000F900F900F900F90DF91CF91FF91EF9150
:10045000BF91AF919F918F917F916F915F914F91DC
:100460003F912F91FF90EF90DF90CF90BF90AF9092
:100470009F908F907F906F905F904F900F900FBEE6
:100480000F901F901895C12CD12C3AE7E32E34E43D
:10049000F32E40CFC12CD12C2AE7E22E24ECF22EF1
:1004A00039CFC12CD12C90EBE92E92E4F92E8FCFCD
:1004B000C12CD12C80EAE82E80E4F82E88CF10924F
:1004C0009903B7CFEBE7F3E080E090E0A0E0B0E481
:1004D00085839683A783B0878CEC9CECACECBDE362
:1004E00081879287A387B4878EEC9CECACE4BEE353
:1004F00085879687A787B08B80E098E0A3E9B5E46D
:10050000818B928BA38BB48B80E090E3A7E2B5E460
:10051000858B968BA78BB08F118E128E138E148EB7
:10052000158E168E178E10A211A212A213A214A25B
:1005300015A216A20895CF93DF9300D000D0CDB7B7
:10054000DEB784B1836084B98AB18C618AB9289A94
:1005500029988BB18C618BB983E390E09093C500AF
:100560008093C40088E18093C10086E08093C2003C
:100570008091C0008D7F8093C0008AB1806E8AB95F
:100580008BB18F718BB938984098259A2D9810921D
:1005900076031092750385E793E0E5E7F1E025E740
:1005A00032E03A832983A981BA811D92BA83A98353
:1005B00011928A179B07B9F7109274011092730178
:1005C000109272011092710101E040E9242E33244F
:1005D000339495E023E0892F8A95F1F78091C0004C
:1005E00087FFF9CF8091C600809370013091760328
:1005F000311108C0B1E0B093750380930C01B09342
:100600007603E9CF3130B9F580930001E0917503AD
:100610003E0F30937503F0E0E45FFE4F808381115D
:1006200026C02093760380910C01803A09F4E2C041
:1006300008F09BC0833309F461C198F5813109F456
:1006400027C1823309F441C1803129F680910D011F
:1006500090E0AEE0B1E0E5E7F1E09F0125573140E1
:100660002817390708F044C12D912193F6CFE2E015
:10067000E0937603B0CF323081F4E091750331E03E
:100680003E0F30937503F0E0E45FFE4F808380916E
:100690000001815080930001C2CF333009F09BCF1D
:1006A000C2CF833409F4FAC078F4843309F093CFCD
:1006B0001092740110927301E5E7F1E0119292E05B
:1006C000E537F907D9F78BC0843409F4E4C08534E1
:1006D00009F081CF80910D018E5F80930B01A2E024
:1006E000A0930A011092740110927301109272018A
:1006F00010927101109209011092050110920601E9
:100700001092070110920801009304011092030156
:1007100010920201B0900A0180910B01B81608F006
:100720005EC0EB2DF0E0E45FFE4FFC83EB83808145
:10073000883E09F4A2C208F09AC1883D09F42CC28F
:1007400008F0FAC0833D09F47EC308F0E4C08F3C92
:1007500009F47CC2823D09F460C3843409F0E6C028
:1007600085B1B0E28B2785B9E1C0843A09F47CC039
:1007700030F4823A09F441C010F1289A30C0823B2B
:10078000A9F1A0F4853A09F026CF10927F0383E304
:1007900093E3A3EAB0E480937B0390937C03A0935C
:1007A0007D03B0937E030E94540019C0833BD1F0B7
:1007B000853B09F010CF5B9A5C9A5A9810C08091E3
:1007C0000E0190910F01A0911001B0911101809341
:1007D0007B0390937C03A0937D03B0937E031092E0
:1007E0007603F7CE5A9A5C9A5B98F9CF5B9A5C9A3B
:1007F0005C98F5CF2898299AF2CF2998289A8BB13E
:100800008F718BB910927F0380E090E0A0E8BFE386
:1008100080937B0390937C03A0937D03B0937E032E
:100820008FB78F778FBF1092B000109280008091A9
:100830007A008F7780937A001092B1001092810035
:100840002A9885E090E090938B0080938A008FE750
:1008500090E090938700809386008FB780688FBF69
:100860008BB18C618BB9BBCF10927F030E94540077
:1008700080919803811108C000000000000080E40E
:100880009CE90197F1F7F4CF8CE40E94C700A7CF51
:1008900080917101FACF80910D01F7CFA5E7B2E009
:1008A000BC83AB8320910E018B819C818557924044
:1008B0002817190609F008F492CFEB81FC81819189
:1008C000FC83EB830E94C700EDCF1092720110925F
:1008D00071011092740110927301A5E7B1E0E5E790
:1008E000F2E011921D9229813A812E173F07C9F734
:1008F000109276038CE40E94C7006BCE10927201B6
:1009000010927101E5E7F2E0119289819A818E17C8
:100910009F07D1F764CF853D09F4B7C208F446C2FA
:10092000863D09F4DDC2873D09F43DC180910A018D
:100930008F5F80930A01EECE8D3D09F41FC388F4CA
:100940008A3D09F4F1C008F40BC18B3D79F7809121
:1009500073019091740101969093740180937301D7
:10096000E5CF853E09F4F8C250F4843EF9F6EB81F8
:10097000FC81818180930101BA94B80EEEC0863E5D
:1009800009F4D7C2873E91F6B394B0920A01EB2DD9
:10099000F0E0E45FFE4F60816093010170E090E061
:1009A00080E00E943E0926E636E64AEA51E40E94CB
:1009B000F3094B015C012BEA3AEA4AEA50E40E944F
:1009C000F3096B017C0120E030E040E85FE30E9426
:1009D000960887FDC2C120E030E040E850E4C50140
:1009E000B4010E94F3092B013C0120E03FEF4FE7E7
:1009F00057E40E94EE0918160CF09CC120E030E08C
:100A00004AE754E4C501B4010E949B084B015C0114
:100A100020E030E04AE755E40E94F3096B017C01D5
:100A200020E030E040E85FE30E94960887FD7FC148
:100A300020E03FEF4FE757E4C701B6010E94EE09FF
:100A400018160CF06AC120E030E040E251E4C50124
:100A5000B4010E94F3090E940D096115710509F4A2
:100A600063C1C1010197F1F761507109F6CF833F6E
:100A700009F4C7C008F042C08E3E09F470C140F5C9
:100A80008B3E09F472C18C3E09F47AC1893E09F0AB
:100A90004DCF80910401882309F43EC2AB81BC8113
:100AA00011968C91119790E090930301809302012D
:100AB00012968C9180930901109204018091090192
:100AC000882309F42FC2BA9480910201B81A45C054
:100AD000803F09F4F7C108F4F2C1813F09F407C26D
:100AE000823F09F023CFB394B0920A01EB2DF0E0DE
:100AF000E45FFE4F808168E070E08DC18B3F09F4B8
:100B000078C050F4853F09F47AC008F476C08A3F73
:100B100009F00CCF29980ACF8F3F08F06CC08D3FA9
:100B200008F469C0289A02CF64E070E090E080E0A9
:100B30000E94CE00AB81BC8111968C9168E070E080
:100B400090E00E94CE00EB81FC81828168E070E041
:100B500090E00E94CE00B394B394B0920A01E6CE26
:100B600064E070E090E080E00E94CE00AB81BC8148
:100B700011968C9168E070E090E00E94CE00EB81CD
:100B8000FC81828168E070E090E00E94CE00AB8141
:100B9000BC8113968C91DACF66E170E090E080E042
:100BA0000E94CE00C3CE64E070E081E090E00E943D
:100BB000CE0068E070E090E080E00E94CE00E0901F
:100BC0007101F09072010E94E900F701EB58FD4FAE
:100BD000FC83EB838083F2E0EF0EF11CF092720154
:100BE000E09271010E94E900AB81BC8111968C9367
:100BF0009DCE299A9BCE289899CE2D9897CE2D9A46
:100C000095CEB394B0920A01EB2DF0E0E45FFE4F75
:100C100080818093010183FD11C05D988091010165
:100C200082FD0EC05E988091010181FD0BC0559A36
:100C30008091010180FD08C0569A78CE5D9AEECF72
:100C40005E9AF1CF5598F4CF569870CEB394B09287
:100C50000A01EB2DF0E0E45FFE4F808180930101FB
:100C600081FD07C05F988091010180FD04C0579A03
:100C70005DCE5F9AF8CF579859CEB394B0920A01DF
:100C8000EB2DF0E0E45FFE4F60816093010170E0C6
:100C900090E080E00E943E0922E538EB4EEA50E405
:100CA0000E94F3094B015C0120E030E04AE755E483
:100CB0000E94F3096B017C0120E030E040E85FE333
:100CC0000E94960887FD23C020E03FEF4FE757E4DE
:100CD000C701B6010E94EE091816A4F420E030E026
:100CE00040E251E4C501B4010E94F3090E940D09DC
:100CF0006115710509F41ACEC1010197F1F7615030
:100D00007109F6CFC701B6010E940D0902C061E06A
:100D100070E0CB010197F1F709CEC701B6010E943F
:100D20000D09CB010197F1F71A95F1F7FFCD61E0BD
:100D300070E0F7CF20E030E04FE753E4C701B601A1
:100D40000E94EE0918161CF4C301B201DDCFC701E1
:100D5000B6010E940D09162FE7CF11E0E5CFEB8118
:100D6000FC81618170E08281F3CEB394B0920A017C
:100D7000EB2DF0E0E45FFE4F80810E94FF00D6CDB6
:100D8000B394B0920A01E0907101F0907201EB2DE2
:100D9000F0E0E45FFE4F80810E94FF00F701EB5816
:100DA000FD4F8083FFEFEF1AFF0A84C064E070E01C
:100DB00090E080E00E94CE0062E070E082E090E08F
:100DC0000E94CE00E0907301F090740197012B58BF
:100DD0003E4F3C832B83D9018C9168E070E090E01A
:100DE0000E94CE00B2E0EB0EF11CF0927401E09292
:100DF0007301EB81FC81818168E070E090E00E94EA
:100E0000CE00B394B0920A01EB2DF0E0E45FFE4F08
:100E1000808164E070E090E0C3CEB394B0920A01A8
:100E2000A0917301B0917401CD010196909374016A
:100E300080937301AB58BE4FEB2DF0E0E45FFE4FA3
:100E400080818C9373CD64E070E090E080E00E943C
:100E5000CE0062E070E082E090E00E94CE0068E0A8
:100E600070E090E080E00E94CE008091730190914C
:100E700074019C012F5F3F4F3093740120937301E5
:100E80008B589E4FDC018C91B7CFB394B0920A017E
:100E9000E0907101F0907201EB2DF0E0E45FFE4F05
:100EA00080810E94FF00F701EB58FD4F8083BFEF68
:100EB000EB1AFB0AF0927201E092710137CD0E94A9
:100EC000E90034CDE0907101F09072010E94E900D8
:100ED000F701EB58FD4F8083EFEFEE1AFE0AEACFE1
:100EE000E0907101F09072010E94E90057CFE0900C
:100EF0007301F0907401F701EB58FE4F808168E0B8
:100F000070E090E00E94CE002FEFE21AF20AF09219
:100F10007401E09273010ACD8091090181508093A0
:100F20000901CCCD0093040110920301109202013B
:100F300012CEAB81BC8111968C91119780930101E7
:100F4000E0917101F0917201EB58FD4F908189138E
:100F5000EDCC12968C910ECDEB81FC81818180933A
:100F60000101E0917101F0917201EB58FD4F908108
:100F7000891708F0DBCCAB81BC81EBCF4091050138
:100F80005091060160910701709108018091040160
:100F9000882309F44BC0EB81FC81818190E0909320
:100FA000030180930201E0917301F0917401EB5809
:100FB000FE4F818190E0982F8827092E000CAA0B04
:100FC000BB0B2081820F911DA11DB11D840F951FA8
:100FD000A61FB71F2281422F50E055274427052E18
:100FE000000C660B770B840F951FA61FB71F80930D
:100FF000050190930601A0930701B0930801109298
:1010000004018091050190910601A0910701B09122
:101010000801892B8A2B8B2B09F055CD00930401F5
:101020001092030110920201B39497CD41505109DF
:10103000610971094093050150930601609307010E
:1010400070930801DECFEE0FFF1F0590F491E02DA5
:1010500009945058BB27AA270E9441080C94B40950
:101060000E94A60938F00E94AD0920F039F49F3F94
:1010700019F426F40C94A3090EF4E095E7FB0C9404
:101080009D09E92F0E94C50958F3BA176207730733
:101090008407950720F079F4A6F50C94E7090EF47F
:1010A000E0950B2EBA2FA02D0B01B90190010C0178
:1010B000CA01A0011124FF27591B99F0593F50F490
:1010C000503E68F11A16F040A22F232F342F4427E8
:1010D000585FF3CF469537952795A795F0405395E0
:1010E000C9F77EF41F16BA0B620B730B840BBAF0B0
:1010F0009150A1F0FF0FBB1F661F771F881FC2F71B
:101100000EC0BA0F621F731F841F48F4879577952E
:101110006795B795F7959E3F08F0B0CF9395880FE8
:1011200008F09927EE0F9795879508950E94790901
:1011300008F481E008950E94AF080C94B4090E945D
:10114000AD0958F00E94A60940F029F45F3F29F04C
:101150000C949D0951110C94E8090C94A3090E9468
:10116000C50968F39923B1F3552391F3951B550BEA
:10117000BB27AA2762177307840738F09F5F5F4F6A
:10118000220F331F441FAA1FA9F335D00E2E3AF0A9
:10119000E0E832D091505040E695001CCAF72BD0C1
:1011A000FE2F29D0660F771F881FBB1F2617370712
:1011B0004807AB07B0E809F0BB0B802DBF01FF2744
:1011C00093585F4F3AF09E3F510578F00C949D097B
:1011D0000C94E8095F3FE4F3983ED4F38695779545
:1011E0006795B795F7959F5FC9F7880F911D9695FD
:1011F000879597F90895E1E0660F771F881FBB1F59
:10120000621773078407BA0720F0621B730B840B05
:10121000BA0BEE1F88F7E09508950E94CD0988F07B
:101220009F5798F0B92F9927B751B0F0E1F0660FAA
:10123000771F881F991F1AF0BA95C9F714C0B130EB
:1012400091F00E94E709B1E008950C94E709672F37
:10125000782F8827B85F39F0B93FCCF3869577951A
:101260006795B395D9F73EF4909580957095619503
:101270007F4F8F4F9F4F0895E89409C097FB3EF42E
:1012800090958095709561957F4F8F4F9F4F9923D3
:10129000A9F0F92F96E9BB279395F6958795779551
:1012A0006795B795F111F8CFFAF4BB0F11F460FF11
:1012B0001BC06F5F7F4F8F4F9F4F16C0882311F069
:1012C00096E911C0772321F09EE8872F762F05C07D
:1012D000662371F096E8862F70E060E02AF09A9518
:1012E000660F771F881FDAF7880F9695879597F90D
:1012F0000895990F0008550FAA0BE0E8FEEF1616A7
:101300001706E807F907C0F012161306E407F507F9
:1013100098F0621B730B840B950B39F40A2661F06D
:10132000232B242B252B21F408950A2609F4A14010
:10133000A6958FEF811D811D089597F99F6780E81D
:1013400070E060E008959FEF80EC089500240A9417
:101350001616170618060906089500240A94121690
:101360001306140605060895092E0394000C11F4C3
:10137000882352F0BB0F40F4BF2B11F460FF04C070
:101380006F5F7F4F8F4F9F4F089557FD9058440FC9
:10139000551F59F05F3F71F04795880F97FB991FD4
:1013A00061F09F3F79F08795089512161306140691
:1013B000551FF2CF4695F1DF08C01616170618061E
:1013C000991FF1CF86957105610508940895E894F9
:1013D000BB2766277727CB0197F908950E947909E3
:1013E00008F48FEF08950E94060A0C94B4090E9435
:1013F000A60938F00E94AD0920F0952311F00C9455
:101400009D090C94A30911240C94E8090E94C509B4
:1014100070F3959FC1F3950F50E0551F629FF00147
:10142000729FBB27F00DB11D639FAA27F00DB11D60
:10143000AA1F649F6627B00DA11D661F829F2227E9
:10144000B00DA11D621F739FB00DA11D621F839F70
:10145000A00D611D221F749F3327A00D611D231F46
:10146000849F600D211D822F762F6A2F11249F5794
:1014700050409AF0F1F088234AF0EE0FFF1FBB1F97
:10148000661F771F881F91505040A9F79E3F510556
:1014900080F00C949D090C94E8095F3FE4F3983EBA
:1014A000D4F3869577956795B795F795E7959F5F00
:1014B000C1F7FE2B880F911D9695879597F9089592
:0414C000F894FFCFCE
:00000001FF
